{
  "contractName": "ChiefValidation",
  "abi": [
    {
      "inputs": [],
      "name": "chief",
      "outputs": [
        {
          "internalType": "address",
          "name": "",
          "type": "address"
        }
      ],
      "stateMutability": "view",
      "type": "function",
      "constant": true
    },
    {
      "inputs": [],
      "name": "chiefAadhaar",
      "outputs": [
        {
          "internalType": "string",
          "name": "",
          "type": "string"
        }
      ],
      "stateMutability": "view",
      "type": "function",
      "constant": true
    },
    {
      "inputs": [],
      "name": "chiefID",
      "outputs": [
        {
          "internalType": "string",
          "name": "",
          "type": "string"
        }
      ],
      "stateMutability": "view",
      "type": "function",
      "constant": true
    },
    {
      "inputs": [
        {
          "internalType": "string",
          "name": "aadhaar",
          "type": "string"
        },
        {
          "internalType": "string",
          "name": "id",
          "type": "string"
        }
      ],
      "name": "setChief",
      "outputs": [],
      "stateMutability": "nonpayable",
      "type": "function"
    },
    {
      "inputs": [
        {
          "internalType": "string",
          "name": "aadhaar",
          "type": "string"
        },
        {
          "internalType": "string",
          "name": "id",
          "type": "string"
        }
      ],
      "name": "updateDetails",
      "outputs": [],
      "stateMutability": "nonpayable",
      "type": "function"
    },
    {
      "inputs": [],
      "name": "resetChief",
      "outputs": [],
      "stateMutability": "nonpayable",
      "type": "function"
    }
  ],
  "bytecode": "0x60806040526040518060400160405280600c81526020017f33363938353230313437323400000000000000000000000000000000000000008152506000908051906020019062000051929190620000b4565b506040518060400160405280600a81526020017f5644574131353937524700000000000000000000000000000000000000000000815250600190805190602001906200009f929190620000b4565b50348015620000ad57600080fd5b50620001c9565b828054620000c29062000164565b90600052602060002090601f016020900481019282620000e6576000855562000132565b82601f106200010157805160ff191683800117855562000132565b8280016001018555821562000132579182015b828111156200013157825182559160200191906001019062000114565b5b50905062000141919062000145565b5090565b5b808211156200016057600081600090555060010162000146565b5090565b600060028204905060018216806200017d57607f821691505b602082108114156200019457620001936200019a565b5b50919050565b7f4e487b7100000000000000000000000000000000000000000000000000000000600052602260045260246000fd5b610c5d80620001d96000396000f3fe608060405234801561001057600080fd5b50600436106100625760003560e01c806342610313146100675780634923e21b1461008557806381904b50146100a1578063a44abb36146100ab578063ac1bc7e8146100c9578063ffd864d3146100e5575b600080fd5b61006f610103565b60405161007c91906109b3565b60405180910390f35b61009f600480360381019061009a91906106c2565b610191565b005b6100a9610329565b005b6100b361036d565b6040516100c091906109b3565b60405180910390f35b6100e360048036038101906100de91906106c2565b6103fb565b005b6100ed610591565b6040516100fa9190610998565b60405180910390f35b6000805461011090610b86565b80601f016020809104026020016040519081016040528092919081815260200182805461013c90610b86565b80156101895780601f1061015e57610100808354040283529160200191610189565b820191906000526020600020905b81548152906001019060200180831161016c57829003601f168201915b505050505081565b8160006040516101a19190610981565b60405180910390208180519060200120146101f1576040517f08c379a00000000000000000000000000000000000000000000000000000000081526004016101e890610a55565b60405180910390fd5b8160016040516102019190610981565b6040518091039020818051906020012014610251576040517f08c379a000000000000000000000000000000000000000000000000000000000815260040161024890610a15565b60405180910390fd5b600073ffffffffffffffffffffffffffffffffffffffff16600260009054906101000a900473ffffffffffffffffffffffffffffffffffffffff1673ffffffffffffffffffffffffffffffffffffffff16146102e2576040517f08c379a00000000000000000000000000000000000000000000000000000000081526004016102d9906109d5565b60405180910390fd5b33600260006101000a81548173ffffffffffffffffffffffffffffffffffffffff021916908373ffffffffffffffffffffffffffffffffffffffff16021790555050505050565b6000600260006101000a81548173ffffffffffffffffffffffffffffffffffffffff021916908373ffffffffffffffffffffffffffffffffffffffff160217905550565b6001805461037a90610b86565b80601f01602080910402602001604051908101604052809291908181526020018280546103a690610b86565b80156103f35780601f106103c8576101008083540402835291602001916103f3565b820191906000526020600020905b8154815290600101906020018083116103d657829003601f168201915b505050505081565b600073ffffffffffffffffffffffffffffffffffffffff16600260009054906101000a900473ffffffffffffffffffffffffffffffffffffffff1673ffffffffffffffffffffffffffffffffffffffff16141561048d576040517f08c379a000000000000000000000000000000000000000000000000000000000815260040161048490610a35565b60405180910390fd5b600260009054906101000a900473ffffffffffffffffffffffffffffffffffffffff1673ffffffffffffffffffffffffffffffffffffffff163373ffffffffffffffffffffffffffffffffffffffff161461051d576040517f08c379a0000000000000000000000000000000000000000000000000000000008152600401610514906109f5565b60405180910390fd5b81600090805190602001906105339291906105b7565b50806001908051906020019061054a9291906105b7565b506000600260006101000a81548173ffffffffffffffffffffffffffffffffffffffff021916908373ffffffffffffffffffffffffffffffffffffffff1602179055505050565b600260009054906101000a900473ffffffffffffffffffffffffffffffffffffffff1681565b8280546105c390610b86565b90600052602060002090601f0160209004810192826105e5576000855561062c565b82601f106105fe57805160ff191683800117855561062c565b8280016001018555821561062c579182015b8281111561062b578251825591602001919060010190610610565b5b509050610639919061063d565b5090565b5b8082111561065657600081600090555060010161063e565b5090565b600061066d61066884610aa6565b610a75565b90508281526020810184848401111561068557600080fd5b610690848285610b44565b509392505050565b600082601f8301126106a957600080fd5b81356106b984826020860161065a565b91505092915050565b600080604083850312156106d557600080fd5b600083013567ffffffffffffffff8111156106ef57600080fd5b6106fb85828601610698565b925050602083013567ffffffffffffffff81111561071857600080fd5b61072485828601610698565b9150509250929050565b61073781610b12565b82525050565b6000815461074a81610b86565b6107548186610af6565b9450600182166000811461076f5760018114610780576107b3565b60ff198316865281860193506107b3565b61078985610ad6565b60005b838110156107ab5781548189015260018201915060208101905061078c565b838801955050505b50505092915050565b60006107c782610aeb565b6107d18185610b01565b93506107e1818560208601610b53565b6107ea81610c16565b840191505092915050565b6000610802602883610b01565b91507f436869656620616c726561647920736574207769746820646966666572656e7460008301527f20616464726573730000000000000000000000000000000000000000000000006020830152604082019050919050565b6000610868602a83610b01565b91507f596f752068617665206e6f2072696768747320746f206368616e67652074686560008301527f73652064657461696c73000000000000000000000000000000000000000000006020830152604082019050919050565b60006108ce600e83610b01565b91507f456e7465722076616c69642049640000000000000000000000000000000000006000830152602082019050919050565b600061090e600f83610b01565b91507f53657420436869656620466972737400000000000000000000000000000000006000830152602082019050919050565b600061094e601383610b01565b91507f456e7465722076616c69642041616468616172000000000000000000000000006000830152602082019050919050565b600061098d828461073d565b915081905092915050565b60006020820190506109ad600083018461072e565b92915050565b600060208201905081810360008301526109cd81846107bc565b905092915050565b600060208201905081810360008301526109ee816107f5565b9050919050565b60006020820190508181036000830152610a0e8161085b565b9050919050565b60006020820190508181036000830152610a2e816108c1565b9050919050565b60006020820190508181036000830152610a4e81610901565b9050919050565b60006020820190508181036000830152610a6e81610941565b9050919050565b6000604051905081810181811067ffffffffffffffff82111715610a9c57610a9b610be7565b5b8060405250919050565b600067ffffffffffffffff821115610ac157610ac0610be7565b5b601f19601f8301169050602081019050919050565b60008190508160005260206000209050919050565b600081519050919050565b600081905092915050565b600082825260208201905092915050565b6000610b1d82610b24565b9050919050565b600073ffffffffffffffffffffffffffffffffffffffff82169050919050565b82818337600083830152505050565b60005b83811015610b71578082015181840152602081019050610b56565b83811115610b80576000848401525b50505050565b60006002820490506001821680610b9e57607f821691505b60208210811415610bb257610bb1610bb8565b5b50919050565b7f4e487b7100000000000000000000000000000000000000000000000000000000600052602260045260246000fd5b7f4e487b7100000000000000000000000000000000000000000000000000000000600052604160045260246000fd5b6000601f19601f830116905091905056fea264697066735822122060474f82615214942abbb91bd1b3f043cc9a11f86dc71306ec80a5332fa4cc0c64736f6c63430008000033",
  "immutableReferences": {},
  "source": "// SPDX-License-Identifier: MIT\r\npragma solidity ^0.8.0;\r\n\r\ncontract ChiefValidation{\r\n    string public chiefAadhaar=\"369852014724\";\r\n    string public chiefID=\"VDWA1597RG\";\r\n    address public chief;\r\n\r\n    // modifiers\r\n    modifier ifChief(){\r\n        require(chief!=address(0),\"Set Chief First\");\r\n        _;\r\n    }\r\n    modifier aadhaarValidation(string memory aadhaar){\r\n        require(keccak256(bytes(aadhaar))==keccak256(bytes(chiefAadhaar)),\"Enter valid Aadhaar\");\r\n        _;\r\n    }\r\n    modifier idValidation(string memory id){\r\n        require(keccak256(bytes(id))==keccak256(bytes(chiefID)),\"Enter valid Id\");\r\n        _;\r\n    }\r\n    modifier checkChief(){\r\n        require(msg.sender==chief,\"You have no rights to change these details\");\r\n        _;\r\n    }\r\n\r\n    function setChief(string memory aadhaar, string memory id) public aadhaarValidation(aadhaar) idValidation(id) {\r\n        require(chief==address(0),\"Chief already set with different address\");\r\n        chief=msg.sender;\r\n    }\r\n\r\n    function updateDetails(string memory aadhaar, string memory id) public ifChief checkChief {\r\n        chiefAadhaar=aadhaar;\r\n        chiefID=id;\r\n        chief=address(0);\r\n    }\r\n\r\n    function resetChief() public{\r\n        chief = address(0);\r\n    }\r\n}",
  "sourcePath": "D:\\SRU\\4th_Yr_1st_Sem\\Capstone_Project\\test_10\\contracts\\ChiefValidation.sol",
  "compiler": {
    "name": "solc",
    "version": "0.8.0+commit.c7dfd78e.Emscripten.clang"
  },
  "schemaVersion": "3.4.16",
  "updatedAt": "2024-11-18T10:22:01.577Z",
  "networkType": "ethereum",
  "devdoc": {
    "kind": "dev",
    "methods": {},
    "version": 1
  },
  "userdoc": {
    "kind": "user",
    "methods": {},
    "version": 1
  }
}