{
  "contractName": "SafeVote",
  "abi": [
    {
      "inputs": [
        {
          "internalType": "uint256",
          "name": "",
          "type": "uint256"
        }
      ],
      "name": "candidateList",
      "outputs": [
        {
          "internalType": "uint256",
          "name": "id",
          "type": "uint256"
        },
        {
          "internalType": "string",
          "name": "name",
          "type": "string"
        },
        {
          "internalType": "uint256",
          "name": "age",
          "type": "uint256"
        },
        {
          "internalType": "string",
          "name": "district",
          "type": "string"
        },
        {
          "internalType": "string",
          "name": "state",
          "type": "string"
        },
        {
          "internalType": "uint256",
          "name": "voteCount",
          "type": "uint256"
        }
      ],
      "stateMutability": "view",
      "type": "function",
      "constant": true
    },
    {
      "inputs": [],
      "name": "chief",
      "outputs": [
        {
          "internalType": "address",
          "name": "",
          "type": "address"
        }
      ],
      "stateMutability": "view",
      "type": "function",
      "constant": true
    },
    {
      "inputs": [],
      "name": "setChief",
      "outputs": [],
      "stateMutability": "nonpayable",
      "type": "function"
    },
    {
      "inputs": [],
      "name": "resetChief",
      "outputs": [],
      "stateMutability": "nonpayable",
      "type": "function"
    },
    {
      "inputs": [],
      "name": "setCandidateRegistration",
      "outputs": [],
      "stateMutability": "nonpayable",
      "type": "function"
    },
    {
      "inputs": [],
      "name": "setVoterRegistration",
      "outputs": [],
      "stateMutability": "nonpayable",
      "type": "function"
    },
    {
      "inputs": [],
      "name": "setVoting",
      "outputs": [],
      "stateMutability": "nonpayable",
      "type": "function"
    },
    {
      "inputs": [],
      "name": "setResultView",
      "outputs": [],
      "stateMutability": "nonpayable",
      "type": "function"
    },
    {
      "inputs": [
        {
          "internalType": "uint256",
          "name": "id",
          "type": "uint256"
        },
        {
          "internalType": "string",
          "name": "name",
          "type": "string"
        },
        {
          "internalType": "uint256",
          "name": "age",
          "type": "uint256"
        },
        {
          "internalType": "string",
          "name": "district",
          "type": "string"
        },
        {
          "internalType": "string",
          "name": "state",
          "type": "string"
        }
      ],
      "name": "registerCandidate",
      "outputs": [],
      "stateMutability": "nonpayable",
      "type": "function"
    },
    {
      "inputs": [
        {
          "internalType": "string",
          "name": "hash",
          "type": "string"
        },
        {
          "internalType": "string",
          "name": "district",
          "type": "string"
        },
        {
          "internalType": "string",
          "name": "state",
          "type": "string"
        }
      ],
      "name": "registerVoter",
      "outputs": [],
      "stateMutability": "nonpayable",
      "type": "function"
    },
    {
      "inputs": [
        {
          "internalType": "uint256",
          "name": "id",
          "type": "uint256"
        }
      ],
      "name": "vote",
      "outputs": [],
      "stateMutability": "nonpayable",
      "type": "function"
    },
    {
      "inputs": [],
      "name": "resultView",
      "outputs": [
        {
          "components": [
            {
              "internalType": "uint256",
              "name": "id",
              "type": "uint256"
            },
            {
              "internalType": "string",
              "name": "name",
              "type": "string"
            },
            {
              "internalType": "uint256",
              "name": "age",
              "type": "uint256"
            },
            {
              "internalType": "string",
              "name": "district",
              "type": "string"
            },
            {
              "internalType": "string",
              "name": "state",
              "type": "string"
            },
            {
              "internalType": "uint256",
              "name": "voteCount",
              "type": "uint256"
            }
          ],
          "internalType": "struct SafeVote.Candidate[]",
          "name": "",
          "type": "tuple[]"
        }
      ],
      "stateMutability": "view",
      "type": "function",
      "constant": true
    }
  ],
  "bytecode": "0x608060405234801561001057600080fd5b506121a9806100206000396000f3fe608060405234801561001057600080fd5b50600436106100b45760003560e01c8063b13c744b11610071578063b13c744b1461012d578063c1d0ab3214610162578063c4ac87911461016c578063cb21fcfa14610176578063d9947a9714610192578063ffd864d31461019c576100b4565b80630121b93f146100b957806307439509146100d55780633452307d146100f15780633d92b9381461010f57806381904b5014610119578063932e58b614610123575b600080fd5b6100d360048036038101906100ce9190611712565b6101ba565b005b6100ef60048036038101906100ea919061167b565b6104b1565b005b6100f9610782565b6040516101069190611d0e565b60405180910390f35b6101176109b5565b005b610121610b45565b005b61012b610b89565b005b61014760048036038101906101429190611712565b610d19565b60405161015996959493929190611e70565b60405180910390f35b61016a610efd565b005b610174610f40565b005b610190600480360381019061018b919061173b565b6110d0565b005b61019a6113a5565b005b6101a4611535565b6040516101b19190611cf3565b60405180910390f35b600260169054906101000a900460ff16610209576040517f08c379a000000000000000000000000000000000000000000000000000000000815260040161020090611d30565b60405180910390fd5b6000600460003373ffffffffffffffffffffffffffffffffffffffff1673ffffffffffffffffffffffffffffffffffffffff1681526020019081526020016000206040518060800160405290816000820160009054906101000a900460ff161515151581526020016000820160019054906101000a900460ff1615151515815260200160018201805461029b9061208c565b80601f01602080910402602001604051908101604052809291908181526020018280546102c79061208c565b80156103145780601f106102e957610100808354040283529160200191610314565b820191906000526020600020905b8154815290600101906020018083116102f757829003601f168201915b5050505050815260200160028201805461032d9061208c565b80601f01602080910402602001604051908101604052809291908181526020018280546103599061208c565b80156103a65780601f1061037b576101008083540402835291602001916103a6565b820191906000526020600020905b81548152906001019060200180831161038957829003601f168201915b505050505081525050905080600001516103f5576040517f08c379a00000000000000000000000000000000000000000000000000000000081526004016103ec90611d70565b60405180910390fd5b80602001511561043a576040517f08c379a000000000000000000000000000000000000000000000000000000000815260040161043190611db0565b60405180910390fd5b6001808381548110610475577f4e487b7100000000000000000000000000000000000000000000000000000000600052603260045260246000fd5b906000526020600020906006020160050160008282546104959190611fb8565b9250508190555060018160200190151590811515815250505050565b600260159054906101000a900460ff16610500576040517f08c379a00000000000000000000000000000000000000000000000000000000081526004016104f790611d90565b60405180910390fd5b600073ffffffffffffffffffffffffffffffffffffffff166003846040516105289190611cdc565b908152602001604051809103902060009054906101000a900473ffffffffffffffffffffffffffffffffffffffff1673ffffffffffffffffffffffffffffffffffffffff16146105ad576040517f08c379a00000000000000000000000000000000000000000000000000000000081526004016105a490611d50565b60405180910390fd5b600460003373ffffffffffffffffffffffffffffffffffffffff1673ffffffffffffffffffffffffffffffffffffffff16815260200190815260200160002060000160009054906101000a900460ff161561063d576040517f08c379a000000000000000000000000000000000000000000000000000000000815260040161063490611e50565b60405180910390fd5b3360038460405161064e9190611cdc565b908152602001604051809103902060006101000a81548173ffffffffffffffffffffffffffffffffffffffff021916908373ffffffffffffffffffffffffffffffffffffffff160217905550604051806080016040528060011515815260200160001515815260200183815260200182815250600460003373ffffffffffffffffffffffffffffffffffffffff1673ffffffffffffffffffffffffffffffffffffffff16815260200190815260200160002060008201518160000160006101000a81548160ff02191690831515021790555060208201518160000160016101000a81548160ff021916908315150217905550604082015181600101908051906020019061075c92919061155b565b50606082015181600201908051906020019061077992919061155b565b50905050505050565b60606001805480602002602001604051908101604052809291908181526020016000905b828210156109ac57838290600052602060002090600602016040518060c0016040529081600082015481526020016001820180546107e39061208c565b80601f016020809104026020016040519081016040528092919081815260200182805461080f9061208c565b801561085c5780601f106108315761010080835404028352916020019161085c565b820191906000526020600020905b81548152906001019060200180831161083f57829003601f168201915b505050505081526020016002820154815260200160038201805461087f9061208c565b80601f01602080910402602001604051908101604052809291908181526020018280546108ab9061208c565b80156108f85780601f106108cd576101008083540402835291602001916108f8565b820191906000526020600020905b8154815290600101906020018083116108db57829003601f168201915b505050505081526020016004820180546109119061208c565b80601f016020809104026020016040519081016040528092919081815260200182805461093d9061208c565b801561098a5780601f1061095f5761010080835404028352916020019161098a565b820191906000526020600020905b81548152906001019060200180831161096d57829003601f168201915b50505050508152602001600582015481525050815260200190600101906107a6565b50505050905090565b600073ffffffffffffffffffffffffffffffffffffffff16600260009054906101000a900473ffffffffffffffffffffffffffffffffffffffff1673ffffffffffffffffffffffffffffffffffffffff161415610a47576040517f08c379a0000000000000000000000000000000000000000000000000000000008152600401610a3e90611dd0565b60405180910390fd5b600260009054906101000a900473ffffffffffffffffffffffffffffffffffffffff1673ffffffffffffffffffffffffffffffffffffffff163373ffffffffffffffffffffffffffffffffffffffff1614610ad7576040517f08c379a0000000000000000000000000000000000000000000000000000000008152600401610ace90611df0565b60405180910390fd5b6000600260146101000a81548160ff0219169083151502179055506001600260156101000a81548160ff0219169083151502179055506000600260166101000a81548160ff0219169083151502179055506000600260176101000a81548160ff021916908315150217905550565b6000600260006101000a81548173ffffffffffffffffffffffffffffffffffffffff021916908373ffffffffffffffffffffffffffffffffffffffff160217905550565b600073ffffffffffffffffffffffffffffffffffffffff16600260009054906101000a900473ffffffffffffffffffffffffffffffffffffffff1673ffffffffffffffffffffffffffffffffffffffff161415610c1b576040517f08c379a0000000000000000000000000000000000000000000000000000000008152600401610c1290611dd0565b60405180910390fd5b600260009054906101000a900473ffffffffffffffffffffffffffffffffffffffff1673ffffffffffffffffffffffffffffffffffffffff163373ffffffffffffffffffffffffffffffffffffffff1614610cab576040517f08c379a0000000000000000000000000000000000000000000000000000000008152600401610ca290611df0565b60405180910390fd5b6000600260146101000a81548160ff0219169083151502179055506000600260156101000a81548160ff0219169083151502179055506001600260166101000a81548160ff0219169083151502179055506000600260176101000a81548160ff021916908315150217905550565b60018181548110610d2957600080fd5b9060005260206000209060060201600091509050806000015490806001018054610d529061208c565b80601f0160208091040260200160405190810160405280929190818152602001828054610d7e9061208c565b8015610dcb5780601f10610da057610100808354040283529160200191610dcb565b820191906000526020600020905b815481529060010190602001808311610dae57829003601f168201915b505050505090806002015490806003018054610de69061208c565b80601f0160208091040260200160405190810160405280929190818152602001828054610e129061208c565b8015610e5f5780601f10610e3457610100808354040283529160200191610e5f565b820191906000526020600020905b815481529060010190602001808311610e4257829003601f168201915b505050505090806004018054610e749061208c565b80601f0160208091040260200160405190810160405280929190818152602001828054610ea09061208c565b8015610eed5780601f10610ec257610100808354040283529160200191610eed565b820191906000526020600020905b815481529060010190602001808311610ed057829003601f168201915b5050505050908060050154905086565b33600260006101000a81548173ffffffffffffffffffffffffffffffffffffffff021916908373ffffffffffffffffffffffffffffffffffffffff160217905550565b600073ffffffffffffffffffffffffffffffffffffffff16600260009054906101000a900473ffffffffffffffffffffffffffffffffffffffff1673ffffffffffffffffffffffffffffffffffffffff161415610fd2576040517f08c379a0000000000000000000000000000000000000000000000000000000008152600401610fc990611dd0565b60405180910390fd5b600260009054906101000a900473ffffffffffffffffffffffffffffffffffffffff1673ffffffffffffffffffffffffffffffffffffffff163373ffffffffffffffffffffffffffffffffffffffff1614611062576040517f08c379a000000000000000000000000000000000000000000000000000000000815260040161105990611df0565b60405180910390fd5b6000600260146101000a81548160ff0219169083151502179055506000600260156101000a81548160ff0219169083151502179055506000600260166101000a81548160ff0219169083151502179055506001600260176101000a81548160ff021916908315150217905550565b600073ffffffffffffffffffffffffffffffffffffffff16600260009054906101000a900473ffffffffffffffffffffffffffffffffffffffff1673ffffffffffffffffffffffffffffffffffffffff161415611162576040517f08c379a000000000000000000000000000000000000000000000000000000000815260040161115990611dd0565b60405180910390fd5b600260009054906101000a900473ffffffffffffffffffffffffffffffffffffffff1673ffffffffffffffffffffffffffffffffffffffff163373ffffffffffffffffffffffffffffffffffffffff16146111f2576040517f08c379a00000000000000000000000000000000000000000000000000000000081526004016111e990611df0565b60405180910390fd5b600260149054906101000a900460ff16611241576040517f08c379a000000000000000000000000000000000000000000000000000000000815260040161123890611e10565b60405180910390fd5b6005600086815260200190815260200160002060009054906101000a900460ff16156112a2576040517f08c379a000000000000000000000000000000000000000000000000000000000815260040161129990611e30565b60405180910390fd5b60016040518060c001604052808781526020018681526020018581526020018481526020018381526020016000815250908060018154018082558091505060019003906000526020600020906006020160009091909190915060008201518160000155602082015181600101908051906020019061132192919061155b565b5060408201518160020155606082015181600301908051906020019061134892919061155b565b50608082015181600401908051906020019061136592919061155b565b5060a08201518160050155505060016005600087815260200190815260200160002060006101000a81548160ff0219169083151502179055505050505050565b600073ffffffffffffffffffffffffffffffffffffffff16600260009054906101000a900473ffffffffffffffffffffffffffffffffffffffff1673ffffffffffffffffffffffffffffffffffffffff161415611437576040517f08c379a000000000000000000000000000000000000000000000000000000000815260040161142e90611dd0565b60405180910390fd5b600260009054906101000a900473ffffffffffffffffffffffffffffffffffffffff1673ffffffffffffffffffffffffffffffffffffffff163373ffffffffffffffffffffffffffffffffffffffff16146114c7576040517f08c379a00000000000000000000000000000000000000000000000000000000081526004016114be90611df0565b60405180910390fd5b6001600260146101000a81548160ff0219169083151502179055506000600260156101000a81548160ff0219169083151502179055506000600260166101000a81548160ff0219169083151502179055506000600260176101000a81548160ff021916908315150217905550565b600260009054906101000a900473ffffffffffffffffffffffffffffffffffffffff1681565b8280546115679061208c565b90600052602060002090601f01602090048101928261158957600085556115d0565b82601f106115a257805160ff19168380011785556115d0565b828001600101855582156115d0579182015b828111156115cf5782518255916020019190600101906115b4565b5b5090506115dd91906115e1565b5090565b5b808211156115fa5760008160009055506001016115e2565b5090565b600061161161160c84611f17565b611ee6565b90508281526020810184848401111561162957600080fd5b61163484828561204a565b509392505050565b600082601f83011261164d57600080fd5b813561165d8482602086016115fe565b91505092915050565b6000813590506116758161215c565b92915050565b60008060006060848603121561169057600080fd5b600084013567ffffffffffffffff8111156116aa57600080fd5b6116b68682870161163c565b935050602084013567ffffffffffffffff8111156116d357600080fd5b6116df8682870161163c565b925050604084013567ffffffffffffffff8111156116fc57600080fd5b6117088682870161163c565b9150509250925092565b60006020828403121561172457600080fd5b600061173284828501611666565b91505092915050565b600080600080600060a0868803121561175357600080fd5b600061176188828901611666565b955050602086013567ffffffffffffffff81111561177e57600080fd5b61178a8882890161163c565b945050604061179b88828901611666565b935050606086013567ffffffffffffffff8111156117b857600080fd5b6117c48882890161163c565b925050608086013567ffffffffffffffff8111156117e157600080fd5b6117ed8882890161163c565b9150509295509295909350565b60006118068383611c27565b905092915050565b6118178161200e565b82525050565b600061182882611f57565b6118328185611f7a565b93508360208202850161184485611f47565b8060005b85811015611880578484038952815161186185826117fa565b945061186c83611f6d565b925060208a01995050600181019050611848565b50829750879550505050505092915050565b600061189d82611f62565b6118a78185611f8b565b93506118b7818560208601612059565b6118c08161214b565b840191505092915050565b60006118d682611f62565b6118e08185611f9c565b93506118f0818560208601612059565b6118f98161214b565b840191505092915050565b600061190f82611f62565b6119198185611fad565b9350611929818560208601612059565b80840191505092915050565b6000611942600d83611f9c565b91507f566f74696e6720436c6f736564000000000000000000000000000000000000006000830152602082019050919050565b6000611982602b83611f9c565b91507f566f74657220416c72656164792052656769737465726564207769746820746860008301527f6573652044657461696c730000000000000000000000000000000000000000006020830152604082019050919050565b60006119e8601483611f9c565b91507f566f746572206e6f7420526567697374657265640000000000000000000000006000830152602082019050919050565b6000611a28601983611f9c565b91507f566f74657220526567697374726174696f6e20436c6f736564000000000000006000830152602082019050919050565b6000611a68601383611f9c565b91507f566f74657220616c726561647920566f746564000000000000000000000000006000830152602082019050919050565b6000611aa8600f83611f9c565b91507f53657420436869656620466972737400000000000000000000000000000000006000830152602082019050919050565b6000611ae8602b83611f9c565b91507f4f6e6c7920656c656374696f6e2063686965662063616e20706572666f726d2060008301527f7468697320616374696f6e0000000000000000000000000000000000000000006020830152604082019050919050565b6000611b4e601d83611f9c565b91507f43616e64696461746520526567697374726174696f6e20436c6f7365640000006000830152602082019050919050565b6000611b8e601f83611f9c565b91507f43616e64696461746520494420416c72656164792052656769737465726564006000830152602082019050919050565b6000611bce602a83611f9c565b91507f566f74657220416c72656164792052656769737465726564207769746820746860008301527f69732041646472657373000000000000000000000000000000000000000000006020830152604082019050919050565b600060c083016000830151611c3f6000860182611cbe565b5060208301518482036020860152611c578282611892565b9150506040830151611c6c6040860182611cbe565b5060608301518482036060860152611c848282611892565b91505060808301518482036080860152611c9e8282611892565b91505060a0830151611cb360a0860182611cbe565b508091505092915050565b611cc781612040565b82525050565b611cd681612040565b82525050565b6000611ce88284611904565b915081905092915050565b6000602082019050611d08600083018461180e565b92915050565b60006020820190508181036000830152611d28818461181d565b905092915050565b60006020820190508181036000830152611d4981611935565b9050919050565b60006020820190508181036000830152611d6981611975565b9050919050565b60006020820190508181036000830152611d89816119db565b9050919050565b60006020820190508181036000830152611da981611a1b565b9050919050565b60006020820190508181036000830152611dc981611a5b565b9050919050565b60006020820190508181036000830152611de981611a9b565b9050919050565b60006020820190508181036000830152611e0981611adb565b9050919050565b60006020820190508181036000830152611e2981611b41565b9050919050565b60006020820190508181036000830152611e4981611b81565b9050919050565b60006020820190508181036000830152611e6981611bc1565b9050919050565b600060c082019050611e856000830189611ccd565b8181036020830152611e9781886118cb565b9050611ea66040830187611ccd565b8181036060830152611eb881866118cb565b90508181036080830152611ecc81856118cb565b9050611edb60a0830184611ccd565b979650505050505050565b6000604051905081810181811067ffffffffffffffff82111715611f0d57611f0c61211c565b5b8060405250919050565b600067ffffffffffffffff821115611f3257611f3161211c565b5b601f19601f8301169050602081019050919050565b6000819050602082019050919050565b600081519050919050565b600081519050919050565b6000602082019050919050565b600082825260208201905092915050565b600082825260208201905092915050565b600082825260208201905092915050565b600081905092915050565b6000611fc382612040565b9150611fce83612040565b9250827fffffffffffffffffffffffffffffffffffffffffffffffffffffffffffffffff03821115612003576120026120be565b5b828201905092915050565b600061201982612020565b9050919050565b600073ffffffffffffffffffffffffffffffffffffffff82169050919050565b6000819050919050565b82818337600083830152505050565b60005b8381101561207757808201518184015260208101905061205c565b83811115612086576000848401525b50505050565b600060028204905060018216806120a457607f821691505b602082108114156120b8576120b76120ed565b5b50919050565b7f4e487b7100000000000000000000000000000000000000000000000000000000600052601160045260246000fd5b7f4e487b7100000000000000000000000000000000000000000000000000000000600052602260045260246000fd5b7f4e487b7100000000000000000000000000000000000000000000000000000000600052604160045260246000fd5b6000601f19601f8301169050919050565b61216581612040565b811461217057600080fd5b5056fea2646970667358221220f496d83c0f074c40a8d78bdb309389a304656c28ccce5606b47f7eac69570dea64736f6c63430008000033",
  "immutableReferences": {},
  "source": "// SPDX-License-Identifier: MIT\r\npragma solidity ^0.8.0;\r\n\r\ncontract SafeVote {\r\n    // Variable Declaration\r\n    struct Voter{\r\n        bool isRegistered;\r\n        bool hasVoted;\r\n        string district;\r\n        string state;\r\n    }\r\n    struct Candidate{\r\n        uint id;\r\n        string name;\r\n        uint age;\r\n        string district;\r\n        string state;\r\n        uint voteCount;\r\n    }\r\n    Voter[] voterList;\r\n    Candidate[] public candidateList;\r\n    address public chief;\r\n    bool candidateRegistrationOpen;\r\n    bool voterRegistrationOpen;\r\n    bool votingOpen;\r\n    bool resultViewOpen;\r\n    mapping (string => address) voterAddressMap;\r\n    mapping (address => Voter) voterDetailsMap;\r\n    mapping (uint => bool) candidateRegister;\r\n\r\n    // Modifiers\r\n    modifier onlyElectionChief(){\r\n        require((msg.sender==chief),\"Only election chief can perform this action\");\r\n        _;\r\n    }\r\n    modifier duringCandidateRegistration(){\r\n        require(candidateRegistrationOpen,\"Candidate Registration Closed\");\r\n        _;\r\n    }\r\n    modifier duringVoterRegistration(){\r\n        require(voterRegistrationOpen,\"Voter Registration Closed\");\r\n        _;\r\n    }\r\n    modifier duringVoting(){\r\n        require(votingOpen,\"Voting Closed\");\r\n        _;\r\n    }\r\n    modifier duringResultView(){\r\n        require(resultViewOpen,\"Result Viewing Closed\");\r\n        _;\r\n    }\r\n    modifier ifChief(){\r\n        require(chief!=address(0),\"Set Chief First\");\r\n        _;\r\n    }\r\n\r\n    // Functions\r\n    function setChief() public {\r\n        chief=msg.sender;\r\n    }\r\n    function resetChief() public {\r\n        chief = address(0);\r\n    }\r\n    function setCandidateRegistration() public ifChief onlyElectionChief{\r\n        candidateRegistrationOpen=true;\r\n        voterRegistrationOpen=false;\r\n        votingOpen=false;\r\n        resultViewOpen=false;\r\n    }\r\n    function setVoterRegistration() public ifChief onlyElectionChief{\r\n        candidateRegistrationOpen=false;\r\n        voterRegistrationOpen=true;\r\n        votingOpen=false;\r\n        resultViewOpen=false;\r\n    }\r\n    function setVoting() public ifChief onlyElectionChief{\r\n        candidateRegistrationOpen=false;\r\n        voterRegistrationOpen=false;\r\n        votingOpen=true;\r\n        resultViewOpen=false;\r\n    }\r\n    function setResultView() public ifChief onlyElectionChief{\r\n        candidateRegistrationOpen=false;\r\n        voterRegistrationOpen=false;\r\n        votingOpen=false;\r\n        resultViewOpen=true;\r\n    }\r\n    function registerCandidate(uint id,string memory name, uint age, string memory district, string memory state) public ifChief onlyElectionChief duringCandidateRegistration{\r\n        require(!candidateRegister[id],\"Candidate ID Already Registered\");\r\n        candidateList.push(Candidate(id,name,age,district,state,0));\r\n        candidateRegister[id]=true;\r\n    }\r\n    function registerVoter(string memory hash, string memory district, string memory state) public duringVoterRegistration{\r\n        require(voterAddressMap[hash]==address(0),\"Voter Already Registered with these Details\");\r\n        require(!voterDetailsMap[msg.sender].isRegistered,\"Voter Already Registered with this Address\");\r\n        voterAddressMap[hash]=msg.sender;\r\n        voterDetailsMap[msg.sender]=Voter(true,false,district,state);\r\n    }\r\n    function toString(uint num) internal pure returns (string memory){\r\n        if(num==0){\r\n            return '0';\r\n        }\r\n        uint256 temp = num;\r\n        uint256 digits;\r\n        while(temp!=0){\r\n            digits++;\r\n            temp/=10;\r\n        }\r\n        bytes memory buffer = new bytes(digits);\r\n        while(num!=0){\r\n            digits--;\r\n            buffer[digits]=bytes1(uint8(48+(num%10)));\r\n            num/=10;\r\n        }\r\n        return string(buffer);\r\n    }\r\n    function vote(uint id) public duringVoting{\r\n        Voter memory voterDetails=voterDetailsMap[msg.sender];\r\n        require(voterDetails.isRegistered, \"Voter not Registered\");\r\n        require(!voterDetails.hasVoted,\"Voter already Voted\");\r\n        candidateList[id].voteCount+=1;\r\n        voterDetails.hasVoted=true;\r\n    }\r\n    function resultView() public view returns (Candidate[] memory){\r\n        return candidateList;\r\n    }\r\n}",
  "sourcePath": "D:\\SRU\\4th_Yr_1st_Sem\\Capstone_Project\\test_10\\contracts\\SafeVote.sol",
  "compiler": {
    "name": "solc",
    "version": "0.8.0+commit.c7dfd78e.Emscripten.clang"
  },
  "schemaVersion": "3.4.16",
  "updatedAt": "2024-11-18T10:22:01.586Z",
  "networkType": "ethereum",
  "devdoc": {
    "kind": "dev",
    "methods": {},
    "version": 1
  },
  "userdoc": {
    "kind": "user",
    "methods": {},
    "version": 1
  }
}